:04000000E8EF05F030
:100800000070616E6461206D65737361676500637C
:100810006F6D6D616E640050616E6461005B4D5D73
:1008200000240026003A00000EEC06F0170E0F6EB2
:10083000080E106E250E126E800E116E010E136ED4
:10084000A6EC05F0010EFEEC05F00F0E0D6E080E85
:100850000E6E010E0F6E080E106E06EC05F0620EA5
:10086000186E660EE82EFED7182EFCD7620E186E94
:10087000660EE82EFED7182EFCD7620E186E660E96
:10088000E82EFED7182EFCD7620E186E660EE82EE4
:10089000FED7182EFCD7620E186E660EE82EFED715
:1008A000182EFCD7620E186E660EE82EFED7182E94
:1008B000FCD7620E186E660EE82EFED7182EFCD7F7
:1008C000620E186E660EE82EFED7182EFCD7620E4A
:1008D000186E660EE82EFED7182EFCD7620E186E24
:1008E000660EE82EFED7182EFCD7620E186E660E26
:1008F000E82EFED7182EFCD7620E186E660EE82E74
:10090000FED7182EFCD7620E186E660EE82EFED7A4
:10091000182EFCD7620E186E660EE82EFED7182E23
:10092000FCD7620E186E660EE82EFED7182EFCD786
:10093000620E186E660EE82EFED7182EFCD785D7ED
:10094000000E0A6E08AE0AD0081E071E061E056CB1
:10095000000E062207220822010E0A6E04AE0AD0FB
:10096000041E031E021E016C000E0222032204223A
:10097000010E0A1A000E0B6E000E0C6E000E0D6EAC
:10098000000E0E6E0550061007100810D8B42AD0BD
:10099000010E096E06D0D8900536063607360836A1
:1009A000092A08AEF8D7D8900B360C360D360E361D
:1009B0000550015C0650025807500358085004586F
:1009C000D8A009D00550015E0650025A0750035ABC
:1009D0000850045A0B80D89008320732063205328C
:1009E000092EE1D70A50D8B408D00E1E0D1E0C1ED9
:1009F0000B6C000E0C220D220E220BC001F00CC05D
:100A000002F00DC003F00EC004F012001BC003F092
:100A10001CC004F003500410D8A4000E056E63EC53
:100A200005F019C003F01AC004F003500410D8A454
:100A3000000E056E63EC05F01FC003F020C004F04B
:100A400021C005F063EC05F0250E036E080E046E60
:100A500003500410D8A4000E056E63EC05F00DC021
:100A600003F00EC004F003500410D8A4000E056E6D
:100A700063EC05F0250E036E080E046E035004109F
:100A8000D8A4000E056E63EC05F00FC003F010C093
:100A900004F003500410D8A4000E056E63EC05F0BA
:100AA0001DC003F01EC004F003500410D8A4000EB3
:100AB000056E63EC05F0040E116E3E0EE82EFED7B7
:100AC000112EFCD71200060E096E000E0A6E27D0FA
:100AD000250E0C18D8B404D00C5023EC06F01FD00F
:100AE000000E0B6E04D00C5023EC06F018D003C09F
:100AF00006F004C007F005C008F0032A000E042227
:100B0000052206C0F6FF07C0F7FF08C0F8FF08007F
:100B1000F5CF0CF00C50000AD8B41200E4D703C093
:100B200006F004C007F005C008F0032A000E0422F6
:100B3000052206C0F6FF07C0F7FF08C0F8FF08004F
:100B4000F5CF0CF00C50D8B41200C2D7949E948C00
:100B50000FC01FF010C020F01F502010D8A4000EAE
:100B6000216E000EFEEC05F0AC9CAC98AC94AB9CF6
:100B7000B88AB888B89611C005F012C006F0076AA6
:100B8000086A800E016E960E026E980E036E000EBD
:100B9000046EA0EC04F001C014F002C015F003C014
:100BA00016F004C017F014C001F015C002F016C012
:100BB00003F017C004F0400E056E000E066E000E26
:100BC000076E000E086EA0EC04F00104AF6E120078
:100BD000226A500EF66E0C0EF76E000EF86E00EEE6
:100BE00019F010EE06F00900F5CFEEFFE550E150E8
:100BF000FAE1000EF86E000114EF04F0016E0150EE
:100C0000D8B406D0949E948CAC8AAB88AB8E12007C
:100C1000949E949CAC9AAB98AB9E1200000E926E80
:100C2000000E806E000E936E000E816E000E946EAC
:100C3000000E826E0F0EC16E1200016EACA2FED7C6
:100C400001C0ADFF1200026E02501DEC06F0120052
:060C50001D082308210825
:020000040020DA
:08000000FFFFFFFFFFFFFFFF00
:020000040030CA
:0E000000040C1F1EFF8080FF0FC00FE00F409A
:00000001FF
