:0400000042EF3FF09C
:107E8400046A00017FEF3FF0026E02504BEC3FF0BA
:107E94001200016EACA2FED701C0ADFF1200000EAD
:107EA400926E000E806E000E936E000E816E000EB8
:107EB400946E000E826E0F0EC16E1200949E948C0E
:107EC400000E6FEC3FF0AC9CAC98AC94AB9CB88AC1
:107ED400B888B8960F0EAF6E1200016E0150D8B478
:107EE40006D0949E948CAC8AAB88AB8E1200949E80
:107EF400949CAC9AAB98AB9E120051EC3FF0010EEF
:107F0400026E800E60EC3FF0010E6FEC3FF0120E3B
:107F140046EC3FF0050E46EC3FF0620E036E660E33
:107F2400E82EFED7032EFCD7620E036E660EE82EF3
:107F3400FED7032EFCD7620E036E660EE82EFED724
:107F4400032EFCD7620E036E660EE82EFED7032EB8
:107F5400FCD7620E036E660EE82EFED7032EFCD706
:107F6400620E036E660EE82EFED7032EFCD7620E59
:107F7400036E660EE82EFED7032EFCD7620E036E48
:107F8400660EE82EFED7032EFCD7620E036E660E35
:107F9400E82EFED7032EFCD7620E036E660EE82E83
:107FA400FED7032EFCD7620E036E660EE82EFED7B4
:107FB400032EFCD7620E036E660EE82EFED7032E48
:107FC400FCD7620E036E660EE82EFED7032EFCD796
:107FD400620E036E660EE82EFED7032EFCD7620EE9
:107FE400036E660EE82EFED7032EFCD7620E036ED8
:0C7FF400660EE82EFED7032EFCD789D7BE
:020000040020DA
:08000000FFFFFFFFFFFFFFFF00
:020000040030CA
:0E000000040C1F1EFF8080FF0FC00FE00F409A
:00000001FF
