:04000000AFEF3EF030
:107D5E00176A00017CEF3FF0026E0250B8EC3EF065
:107D6E001200016EACA2FED701C0ADFF1200000ED4
:107D7E00926E000E806E000E936E000E816E000EDF
:107D8E00946E000E826E0F0EC16E1200016E0150C7
:107D9E00D8B406D0949E948CAC8AAB88AB8E12006D
:107DAE00949E949CAC9AAB98AB9E1200949E948C2D
:107DBE00000ECDEC3EF0AC9CAC98AC94AB9CB88A6B
:107DCE00B888B8960FC005F010C006F0076A086AAA
:107DDE00800E016E960E026E980E036E000E046EED
:107DEE0016EC3FF001C012F002C013F003C014F005
:107DFE0004C015F012C001F013C002F014C003F05D
:107E0E0015C004F0400E056E000E066E000E076ED5
:107E1E00000E086E16EC3FF00104AF6E1200000E5D
:107E2E000A6E08AE0AD0081E071E061E056C000E4E
:107E3E00062207220822010E0A6E04AE0AD0041E84
:107E4E00031E021E016C000E022203220422010EEA
:107E5E000A1A000E0B6E000E0C6E000E0D6E000E4A
:107E6E000E6E0550061007100810D8B42AD0010E59
:107E7E00096E06D0D8900536063607360836092A1A
:107E8E0008AEF8D7D8900B360C360D360E36055098
:107E9E00015C065002580750035808500458D8A0E9
:107EAE0009D00550015E0650025A0750035A085079
:107EBE00045A0B80D8900832073206320532092E4A
:107ECE00E1D70A50D8B408D00E1E0D1E0C1E0B6C36
:107EDE00000E0C220D220E220BC001F00CC002F07F
:107EEE000DC003F00EC004F01200BEEC3EF0250EE5
:107EFE00106E800E0F6E010E116EDDEC3EF0010E57
:107F0E00CDEC3EF0120EB3EC3EF0050EB3EC3EF0AF
:107F1E00620E166E660EE82EFED7162EFCD7620E79
:107F2E00166E660EE82EFED7162EFCD7620E166E55
:107F3E00660EE82EFED7162EFCD7620E166E660E55
:107F4E00E82EFED7162EFCD7620E166E660EE82EA3
:107F5E00FED7162EFCD7620E166E660EE82EFED7D4
:107F6E00162EFCD7620E166E660EE82EFED7162E55
:107F7E00FCD7620E166E660EE82EFED7162EFCD7B6
:107F8E00620E166E660EE82EFED7162EFCD7620E09
:107F9E00166E660EE82EFED7162EFCD7620E166EE5
:107FAE00660EE82EFED7162EFCD7620E166E660EE5
:107FBE00E82EFED7162EFCD7620E166E660EE82E33
:107FCE00FED7162EFCD7620E166E660EE82EFED764
:107FDE00162EFCD7620E166E660EE82EFED7162EE5
:107FEE00FCD7620E166E660EE82EFED7162EFCD746
:027FFE0089D721
:020000040020DA
:08000000FFFFFFFFFFFFFFFF00
:020000040030CA
:0E000000040C1F1EFF8080FF0FC00FE00F409A
:00000001FF
