:04000000CAEF05F04E
:1008000000636F6D6D616E64310050616E646100F4
:0B0810005B4D5D00240026003A000054
:10081C00F0EC05F00A0E0F6E080E106E250E126E1F
:10082C00800E116E010E136E88EC05F0010EE0ECDB
:10083C0005F0010E0D6E080E0E6E120EFDEC04F09E
:10084C00620E186E660EE82EFED7182EFCD7620EBE
:10085C00186E660EE82EFED7182EFCD7620E186E98
:10086C00660EE82EFED7182EFCD7620E186E660E9A
:10087C00E82EFED7182EFCD7620E186E660EE82EE8
:10088C00FED7182EFCD7620E186E660EE82EFED719
:10089C00182EFCD7620E186E660EE82EFED7182E98
:1008AC00FCD7620E186E660EE82EFED7182EFCD7FB
:1008BC00620E186E660EE82EFED7182EFCD7620E4E
:1008CC00186E660EE82EFED7182EFCD7620E186E28
:1008DC00660EE82EFED7182EFCD7620E186E660E2A
:1008EC00E82EFED7182EFCD7620E186E660EE82E78
:1008FC00FED7182EFCD7620E186E660EE82EFED7A9
:10090C00182EFCD7620E186E660EE82EFED7182E27
:10091C00FCD7620E186E660EE82EFED7182EFCD78A
:10092C0088D7000E0A6E08AE0AD0081E071E061ED7
:10093C00056C000E062207220822010E0A6E04AE78
:10094C000AD0041E031E021E016C000E022203229A
:10095C000422010E0A1A000E0B6E000E0C6E000E15
:10096C000D6E000E0E6E0550061007100810D8B450
:10097C002AD0010E096E06D0D890053606360736F9
:10098C000836092A08AEF8D7D8900B360C360D3637
:10099C000E360550015C065002580750035808509B
:1009AC000458D8A009D00550015E0650025A0750D1
:1009BC00035A0850045A0B80D8900832073206327A
:1009CC000532092EE1D70A50D8B408D00E1E0D1EE0
:1009DC000C1E0B6C000E0C220D220E220BC001F013
:1009EC000CC002F00DC003F00EC004F012001BC0CE
:1009FC0003F01CC004F003500410D8A4000E056EC4
:100A0C0045EC05F019C003F01AC004F003500410B3
:100A1C00D8A4000E056E45EC05F01FC003F020C0F5
:100A2C0004F021C005F045EC05F0180E036E080E1D
:100A3C00046E03500410D8A4000E056E45EC05F0AE
:100A4C000DC003F00EC004F003500410D8A4000E27
:100A5C00056E45EC05F01DC003F01EC004F00350FC
:100A6C000410D8A4000E056E45EC05F0210E0F6E97
:100A7C00760EE82EFED70F2EFCD700D01200060EF5
:100A8C00096E000E0A6E27D0250E0C18D8B404D0AF
:100A9C000C5005EC06F01FD0000E0B6E04D00C5061
:100AAC0005EC06F018D003C006F004C007F005C032
:100ABC0008F0032A000E0422052206C0F6FF07C028
:100ACC00F7FF08C0F8FF0800F5CF0CF00C50000A37
:100ADC00D8B41200E4D703C006F004C007F005C078
:100AEC0008F0032A000E0422052206C0F6FF07C0F8
:100AFC00F7FF08C0F8FF0800F5CF0CF00C50D8B485
:100B0C001200C2D7949E948C0FC01FF010C020F01E
:100B1C001F502010D8A4000E216E000EE0EC05F042
:100B2C00AC9CAC98AC94AB9CB88AB888B89611C005
:100B3C0005F012C006F0076A086A800E016E960E68
:100B4C00026E980E036E000E046E97EC04F001C05A
:100B5C0014F002C015F003C016F004C017F014C056
:100B6C0001F015C002F016C003F017C004F0400EDF
:100B7C00056E000E066E000E076E000E086E97ECEA
:100B8C0004F00104AF6E1200226A140EF66E0C0E05
:100B9C00F76E000EF86E00EE19F010EE06F009007C
:100BAC00F5CFEEFFE550E150FAE1000EF86E0001D2
:100BBC000EEF04F0016E0150D8B406D0949E948CC4
:100BCC00AC8AAB88AB8E1200949E949CAC9AAB987A
:100BDC00AB9E1200000E926E000E806E000E936E95
:100BEC00000E816E000E946E000E826E0F0EC16EA2
:100BFC001200016EACA2FED701C0ADFF1200026E56
:0E0C0C000250FFEC05F0120010081608140844
:020000040020DA
:08000000FFFFFFFFFFFFFFFF00
:020000040030CA
:0E000000040C1F1EFF8080FF0FC00FE00F409A
:00000001FF
