:040000005CEF00F0C1
:100018003F80D8CF10F0E8CF11F0E0CF12F0FACF40
:1000280013F0FBCF14F0E9CF15F0EACF16F0E1CFCB
:1000380017F0E2CF18F0D9CF19F0DACF1AF0F3CFD2
:100048001BF0F4CF1CF0F6CF1DF0F7CF1EF0F8CF61
:100058001FF0F5CF20F080809EAA05D017EC06F09F
:10006800D8EC04F09E9A809020C0F5FF1FC0F8FFDE
:100078001EC0F7FF1DC0F6FF1CC0F4FF1BC0F3FF36
:100088001AC0DAFF19C0D9FF18C0E2FF17C0E1FF94
:1000980016C0EAFF15C0E9FF14C0FBFF13C0FAFF42
:1000A80012C0E0FF11C0E8FF10C0D8FF3F90100059
:0400B800BCEF05F0A4
:100800000050616E6461005B4D5D00240026003A7B
:100810000000000E0001616F28AE0BD0281E271EBD
:10082000261E256C000E262227222822010E0001FA
:10083000616F24AE0BD0241E231E221E216C000EDD
:10084000222223222422010E0001611B000E00013E
:10085000626F000E636F000E646F000E656F2550AF
:10086000261027102810D8B42FD0010E0001606F79
:1008700007D0D89025362636273628360001602B3B
:1008800028AEF7D70001D8906237633764376537F1
:100890002550215C26502258275023582850245890
:1008A000D8A00AD02550215E2650225A2750235A1C
:1008B0002850245A00016281D890283227322632EB
:1008C00025320001602FDED7000161510001D8B44C
:1008D00009D00001651F641F631F626D000E632352
:1008E0006423652362C021F063C022F064C023F05A
:1008F00065C024F0120038C003F039C004F0035082
:100900000410D8A4000E056E73EC05F036C003F099
:1009100037C004F003500410D8A4000E056E73EC29
:1009200005F03CC003F03DC004F03EC005F073ECA0
:1009300005F00F0E036E080E046E03500410D8A4C9
:10094000000E056E73EC05F00AC003F00BC004F056
:1009500003500410D8A4200E056E73EC05F00F0EA2
:10096000036E080E046E03500410D8A4000E056E2A
:1009700073EC05F00CC003F00DC004F0035004103C
:10098000D8A4200E056E73EC05F03AC003F03BC00E
:1009900004F003500410D8A4000E056E73EC05F0AB
:1009A000040E0E6E3E0EE82EFED70E2EFCD7120061
:1009B0000F6E3ED0260E0F18D8A405D0000E356E4F
:1009C000010E336E1200000E336E12003A0E0F1835
:1009D000D8A403D0020E336E12000F0E2E6E000E3E
:1009E0002F6E2E4A2F2A12003A0E0F18D8A403D0C9
:1009F000030E336E12000F0E306E000E316E304A51
:100A0000312A1200240E0F18D8A40CD02EC00AF0E0
:100A10002FC00BF030C00CF031C00DF07BEC04F0B7
:100A2000010E356E000E336E1200000E336E120092
:100A30003350000AD8B4BED7010AD8B4C7D7030AC6
:100A4000D8B4D2D7010AD8B4DDD7EFD7949E948C0E
:100A500066C03CF067C03DF03C503D10D8A4000E8D
:100A60003E6E000EEDEC05F0AC9CAC98AC94AB9CEB
:100A7000B88AB888B89668C025F069C026F0276A99
:100A8000286A800E216E960E226E980E236E000E3E
:100A9000246E09EC04F021C029F022C02AF023C002
:100AA0002BF024C02CF029C021F02AC022F02BC04A
:100AB00023F02CC024F0400E256E000E266E000E92
:100AC000276E000E286E09EC04F02104AF6E0001C1
:100AD0006A510001D8B41200D08EF28EF28C9E9A28
:100AE0009F9A9D8A1200060E066E000E076E2AD08F
:100AF000250E0918D8B404D0095012EC06F022D003
:100B0000000E086E04D0095012EC06F01BD003C092
:100B1000F6FF04C0F7FF05C0F8FF010E0326000E24
:100B200004220522F8BA03D00800F55005D0F6CF0C
:100B3000E9FFF7CFEAFFEF50096E0950000AD8B479
:100B40001200E1D703C0F6FF04C0F7FF05C0F8FFAD
:100B5000010E0326000E04220522F8BA03D0080075
:100B6000F55005D0F6CFE9FFF7CFEAFFEF50096E59
:100B70000950D8B41200BCD700EE2DF0090EEE6A71
:100B8000E806FDE1360EF66E0C0EF76E000EF86EFE
:100B900000EE36F010EE06F00900F5CFEEFFE5505E
:100BA000E150FAE13F903F920001D7EF05F0FDECF4
:100BB00005F0010E0001666F080E0001676F250E3B
:100BC0000001696F800E686F010E00016A6F26ECEC
:100BD00005F0010EEDEC05F0FFD7216E2150D8B4E1
:100BE00006D0949E948CAC8AAB88AB8E1200949EF7
:100BF000949CAC9AAB98AB9E1200000E926E000EC5
:100C0000806E000E936E000E816E000E946E000ECC
:100C1000826E0F0EC16E1200016EACA2FED701C033
:100C2000ADFF1200026E02500CEC06F01200AB5049
:0C0C3000AB50AE50120007080D080B0876
:020000040020DA
:08000000FFFFFFFFFFFFFFFF00
:020000040030CA
:0E000000040C1F1EFF8080FF0FC00FE00F409A
:00000001FF
