:040000005AEF00F0C3
:100018003680D8CF19F0E8CF1AF0E0CF1BF0FACF2E
:100028001CF0FBCF1DF0E9CF1EF0EACF1FF0E1CFA7
:1000380020F0E2CF21F0D9CF22F0DACF23F0F3CFAE
:1000480024F0F4CF25F0F6CF26F0F7CF27F0F8CF3D
:1000580028F0F5CF29F09EAA05D06AEC08F01DEC2F
:1000680004F09E9A29C0F5FF28C0F8FF27C0F7FFC3
:1000780026C0F6FF25C0F4FF24C0F3FF23C0DAFF33
:1000880022C0D9FF21C0E2FF20C0E1FF1FC0EAFF64
:100098001EC0E9FF1DC0FBFF1CC0FAFF1BC0E0FF2C
:1000A8001AC0E8FF19C0D8FF36901000BDEF07F05E
:100800000001001000000100103031323334353661
:100810003738396162636465660050616E646100F7
:10082000496E6974005B415D005B4D5D0025780099
:090830004900240026003A0000F2
:10083A00186E9BD0260E1818D8A410D0000E0101ED
:10084A000A6F000E01013D6F000E0101706F000E6C
:10085A000101A36F000E356E010E79D0000E010161
:10086A00A56F12003A0E1818D8A402D0020E6FD043
:10087A0001010A51010D000EF324D96E010EF42074
:10088A00DA6E18C0DFFF01010A2B0A0E01010A65A0
:10089A0081D0000E01010A6F7DD03A0E1818D8A433
:1008AA0002D0030E54D001013D51010D0B0EF32469
:1008BA00D96E010EF420DA6E18C0DFFF01013D2B5C
:1008CA00320E01013D6566D0000E01013D6F62D016
:1008DA003A0E1818D8A402D0040E39D0010170516A
:1008EA00010D3E0EF324D96E010EF420DA6E18C003
:1008FA00DFFF0101702B320E010170654BD0000E33
:10090A000101706F47D03A0E1818D8A402D0050E0C
:10091A001ED00101A351010D710EF324D96E010EEF
:10092A00F420DA6E18C0DFFF0101A32B320E010199
:10093A00A36530D0000E0101A36F2CD0240E181825
:10094A00D8A408D05EEC07F0010E356E000E010146
:10095A00A56F20D01850D00F0101A46F1BD0000E34
:10096A000101A56F000E356E15D00101A551000ACF
:10097A00D8B460D7010AD8B475D7030AD8B48DD7CA
:10098A00010AD8B4A5D7070AD8B4BDD7010AD8B482
:10099A00D5D7E5D735B002D0809001D0808012003B
:1009AA00660E00016B6F000E00016C6F8CD0250E75
:1009BA0000017019D8B405D00001705160EC08F03C
:1009CA0082D0000E0001696F05D00001705160EC01
:1009DA0008F079D063C066F064C067F065C068F05B
:1009EA000001632B000E6423652366C0F6FF67C00F
:1009FA00F7FF68C0F8FF0800F5CF70F000017051EA
:100A0A00000AD8B41200780AD8A4DFD76BC0D9FF7D
:100A1A006CC0DAFFDECF6DF0DDCF6EF0020E0001A2
:100A2A006B27000E6C23010E0001706F040E00018B
:100A3A007019D8B416D000017051020D010EF324BA
:100A4A00F66E080EF420F76E0900F55000016D5D90
:100A5A000900F55000016E59D8A003D00001702B8F
:100A6A00E5D770C06FF029D06DC02AF06EC02BF0A8
:100A7A0000016F51020D010EF324F66E080EF420E8
:100A8A00F76E0900F5CF2CF00A00F5CF2DF08EECA9
:100A9A0007F02A500F0B00016A6F00016A51010D1D
:100AAA00090EF324F66E080EF420F76E0800F5CF4F
:100ABA0070F00001705160EC08F000016F0700014E
:100ACA006F29D8A4D1D763C066F064C067F065C047
:100ADA0068F00001632B000E6423652366C0F6FFED
:100AEA0067C0F7FF68C0F8FF0800F5CF70F0000193
:100AFA007051D8B412005BD70B0E116E000E126E35
:100B0A0079D0250E1718D8B404D0175065EC08F020
:100B1A0071D0000E106E04D0175065EC08F06AD040
:100B2A0008C00DF009C00EF00AC00FF0082A000E26
:100B3A0009220A220DC0F6FF0EC0F7FF0FC0F8FF08
:100B4A000800F5CF17F01750000AD8B41200780A37
:100B5A00D8A4E2D711C0D9FF12C0DAFFDECF14F051
:100B6A00DDCF15F0020E1126000E1222010E176EAD
:100B7A00040E1718D8B412D01750020D010EF32420
:100B8A00F66E080EF420F76E0900F550145C0900A1
:100B9A00F5501558D8A002D0172AEAD717C016F070
:100BAA0025D014C001F015C002F01650020D010E36
:100BBA00F324F66E080EF420F76E0900F5CF03F061
:100BCA000A00F5CF04F0E8EC07F001500F0B136EA2
:100BDA001350010D090EF324F66E080EF420F76E79
:100BEA000800F5CF17F0175065EC08F0160616281E
:100BFA00D8A4D7D708C00DF009C00EF00AC00FF06C
:100C0A00082A000E09220A220DC0F6FF0EC0F7FFBD
:100C1A000FC0F8FF0800F5CF17F01750D8B412002C
:100C2A0070D7000E0001696F000167AF0CD0000198
:100C3A00671F661F651F646D000E652366236723A1
:100C4A00010E0001696F000163AF0CD00001631F40
:100C5A00621F611F606D000E612362236323010E10
:100C6A000001691B000E00016A6F000E6B6F000E17
:100C7A006C6F000E6D6F0001645100016511000177
:100C8A00661100016711D8B442D0010E0001686FE5
:100C9A0008D00001D8906437653766376737000196
:100CAA00682B000167AFF5D70001D8906A376B3718
:100CBA006C376D37000164510001605D00016551B8
:100CCA000001615900016651000162590001675132
:100CDA0000016359D8A012D0000164510001605F7D
:100CEA00000165510001615B000166510001625B10
:100CFA00000167510001635B00016A810001D8901D
:100D0A0067336633653364330001682FCDD700013A
:100D1A0069510001D8B409D000016D1F6C1F6B1F07
:100D2A006A6D000E6B236C236D236AC060F06BC082
:100D3A0061F06CC062F06DC063F0120030C063F005
:100D4A0031C064F0000163516411D8A4000E656FCC
:100D5A00D5EC04F07AC063F07BC064F00001635103
:100D6A006411D8A4000E656FD5EC04F077C063F067
:100D7A0078C064F079C065F0D5EC04F0360E000155
:100D8A00636F080E0001646F000163516411D8A4F7
:100D9A00000E656FD5EC04F071C063F072C064F0A8
:100DAA00000163516411D8A4000E656FD5EC04F0FC
:100DBA00360E0001636F080E0001646F0001635173
:100DCA006411D8A4000E656FD5EC04F073C063F00B
:100DDA0074C064F0000163516411D8A4000E656FF9
:100DEA00D5EC04F032C063F033C064F00001635103
:100DFA006411D8A4000E656FD5EC04F0040E00014E
:100E0A00756F3E0EE82EFED7752FFCD71200949E02
:100E1A00948C6EC077F06FC078F00001775178112A
:100E2A00D8A4000E796F000E35EC08F0AC9CAC9893
:100E3A00AC94AB9CB88AB888B89670C064F071C09C
:100E4A0065F00001666B676B800E0001606F960E9D
:100E5A00616F980E626F000E636F16EC06F060C049
:100E6A0073F061C074F062C075F063C076F073C04D
:100E7A0060F074C061F075C062F076C063F0400E35
:100E8A000001646F000E656F000E666F000E676FDB
:100E9A0016EC06F000016005AF6E00017251000108
:100EAA00D8B41200D08EF28EF28C9E9A9F9A9D8AA6
:100EBA00120030C008F031C009F008500910D8A457
:100ECA00000E0A6E81EC05F02EC008F02FC009F062
:100EDA0008500910D8A4000E0A6E81EC05F02D0EF8
:100EEA00086E080E096E08500910D8A4000E0A6E82
:100EFA00A4C10BF00C6A81EC05F032C008F033C0D3
:100F0A0009F008500910D8A4000E0A6E81EC05F009
:100F1A001200000E0001626F000E616F2C502D103E
:100F2A00D8B421D0010E0001606F05D0D8902C36BC
:100F3A002D360001602B2DAEF9D70001D89061370C
:100F4A0062372C502A5C2D502B58D8A006D02C5032
:100F5A002A5E2D502B5A00016181D8902D322C32F5
:100F6A000001602FEAD761C02AF062C02BF012009C
:100F7A0001EE00F0A60EEE6AE806FDE1356A346A73
:100F8A00E20EF66E100EF76E000EF86E0900F5CF3F
:100F9A007AF00900F5CF7BF0DC0EF66E100EF76ED4
:100FAA00000EF86E00EE2EF010EE06F00900F5CFF6
:100FBA00EEFFE550E150FAE136903692000EF86EF7
:100FCA00000111EF08F0000E066E000E056E0350C8
:100FDA000410D8B41CD0010E076E04D0D890033682
:100FEA000436072A04AEFAD7D890053606360350D7
:100FFA00015C04500258D8A005D00350015E045089
:10100A00025A0580D89004320332072EEDD705C064
:10101A0001F006C002F0120045EC08F01A0E0001B9
:10102A006E6F080E00016F6F250E0001716F800E42
:10103A00706F010E0001726F0CEC07F0010E35ECB7
:10104A0008F0300E0001716F080E0001726F200E59
:10105A000001736F080E0001746FA3EC06F0FFD74E
:10106A002A6E2A50D8B406D0949E948CAC8AAB8847
:10107A00AB8E1200949E949CAC9AAB98AB9E1200D5
:10108A00000E926E000E806E000E936E000E816E40
:10109A00000E946E000E826E0F0EC16E12002A6E42
:1010AA00ACA2FED72AC0ADFF1200016EACA2FED7D9
:1010BA0001C0ADFF12002B6E2B5054EC08F0120049
:1010CA00026E02505AEC08F01200AB50AB50AE5010
:0A10DA001200250834083208290826
:020000040020DA
:08000000FFFFFFFFFFFFFFFF00
:020000040030CA
:0E000000040C1F1EFF8080FF0FC00FE00F409A
:00000001FF
